{
  "_format": "hh-sol-artifact-1",
  "contractName": "xpBridgeDiscount",
  "sourceName": "contracts/xpBridgeDiscount.sol",
  "abi": [
    {
      "inputs": [
        {
          "internalType": "address",
          "name": "_address",
          "type": "address"
        }
      ],
      "stateMutability": "nonpayable",
      "type": "constructor"
    },
    {
      "anonymous": false,
      "inputs": [
        {
          "indexed": true,
          "internalType": "address",
          "name": "_from",
          "type": "address"
        },
        {
          "indexed": false,
          "internalType": "uint256",
          "name": "_value",
          "type": "uint256"
        }
      ],
      "name": "Deposit",
      "type": "event"
    },
    {
      "anonymous": false,
      "inputs": [
        {
          "indexed": true,
          "internalType": "address",
          "name": "previousOwner",
          "type": "address"
        },
        {
          "indexed": true,
          "internalType": "address",
          "name": "newOwner",
          "type": "address"
        }
      ],
      "name": "OwnershipTransferred",
      "type": "event"
    },
    {
      "inputs": [
        {
          "internalType": "uint256",
          "name": "_amount",
          "type": "uint256"
        }
      ],
      "name": "deposit",
      "outputs": [],
      "stateMutability": "nonpayable",
      "type": "function"
    },
    {
      "inputs": [],
      "name": "owner",
      "outputs": [
        {
          "internalType": "address",
          "name": "",
          "type": "address"
        }
      ],
      "stateMutability": "view",
      "type": "function"
    },
    {
      "inputs": [],
      "name": "renounceOwnership",
      "outputs": [],
      "stateMutability": "nonpayable",
      "type": "function"
    },
    {
      "inputs": [],
      "name": "token",
      "outputs": [
        {
          "internalType": "contract ERC20",
          "name": "",
          "type": "address"
        }
      ],
      "stateMutability": "view",
      "type": "function"
    },
    {
      "inputs": [
        {
          "internalType": "address",
          "name": "newOwner",
          "type": "address"
        }
      ],
      "name": "transferOwnership",
      "outputs": [],
      "stateMutability": "nonpayable",
      "type": "function"
    },
    {
      "inputs": [
        {
          "internalType": "uint256",
          "name": "_totalAmount",
          "type": "uint256"
        }
      ],
      "name": "withdraw",
      "outputs": [],
      "stateMutability": "nonpayable",
      "type": "function"
    }
  ],
  "bytecode": "0x608060405234801561001057600080fd5b50604051610cf9380380610cf983398181016040528101906100329190610176565b61004e61004361009560201b60201c565b61009d60201b60201c565b80600160006101000a81548173ffffffffffffffffffffffffffffffffffffffff021916908373ffffffffffffffffffffffffffffffffffffffff160217905550506101e8565b600033905090565b60008060009054906101000a900473ffffffffffffffffffffffffffffffffffffffff169050816000806101000a81548173ffffffffffffffffffffffffffffffffffffffff021916908373ffffffffffffffffffffffffffffffffffffffff1602179055508173ffffffffffffffffffffffffffffffffffffffff168173ffffffffffffffffffffffffffffffffffffffff167f8be0079c531659141344cd1fd0a4f28419497f9722a3daafe3b4186f6b6457e060405160405180910390a35050565b600081519050610170816101d1565b92915050565b60006020828403121561018857600080fd5b600061019684828501610161565b91505092915050565b60006101aa826101b1565b9050919050565b600073ffffffffffffffffffffffffffffffffffffffff82169050919050565b6101da8161019f565b81146101e557600080fd5b50565b610b02806101f76000396000f3fe608060405234801561001057600080fd5b50600436106100625760003560e01c80632e1a7d4d14610067578063715018a6146100835780638da5cb5b1461008d578063b6b55f25146100ab578063f2fde38b146100c7578063fc0c546a146100e3575b600080fd5b610081600480360381019061007c9190610770565b610101565b005b61008b6102a9565b005b6100956102bd565b6040516100a29190610858565b60405180910390f35b6100c560048036038101906100c09190610770565b6102e6565b005b6100e160048036038101906100dc919061071e565b6104d6565b005b6100eb61055a565b6040516100f891906108d3565b60405180910390f35b610109610580565b80600160009054906101000a900473ffffffffffffffffffffffffffffffffffffffff1673ffffffffffffffffffffffffffffffffffffffff166370a08231306040518263ffffffff1660e01b81526004016101659190610858565b60206040518083038186803b15801561017d57600080fd5b505afa158015610191573d6000803e3d6000fd5b505050506040513d601f19601f820116820180604052508101906101b59190610799565b10156101f6576040517f08c379a00000000000000000000000000000000000000000000000000000000081526004016101ed9061092e565b60405180910390fd5b600160009054906101000a900473ffffffffffffffffffffffffffffffffffffffff1673ffffffffffffffffffffffffffffffffffffffff1663a9059cbb33836040518363ffffffff1660e01b81526004016102539291906108aa565b602060405180830381600087803b15801561026d57600080fd5b505af1158015610281573d6000803e3d6000fd5b505050506040513d601f19601f820116820180604052508101906102a59190610747565b5050565b6102b1610580565b6102bb60006105fe565b565b60008060009054906101000a900473ffffffffffffffffffffffffffffffffffffffff16905090565b80600160009054906101000a900473ffffffffffffffffffffffffffffffffffffffff1673ffffffffffffffffffffffffffffffffffffffff166370a08231336040518263ffffffff1660e01b81526004016103429190610858565b60206040518083038186803b15801561035a57600080fd5b505afa15801561036e573d6000803e3d6000fd5b505050506040513d601f19601f820116820180604052508101906103929190610799565b10156103d3576040517f08c379a00000000000000000000000000000000000000000000000000000000081526004016103ca9061092e565b60405180910390fd5b600160009054906101000a900473ffffffffffffffffffffffffffffffffffffffff1673ffffffffffffffffffffffffffffffffffffffff166323b872dd3330846040518463ffffffff1660e01b815260040161043293929190610873565b602060405180830381600087803b15801561044c57600080fd5b505af1158015610460573d6000803e3d6000fd5b505050506040513d601f19601f820116820180604052508101906104849190610747565b503373ffffffffffffffffffffffffffffffffffffffff167fe1fffcc4923d04b559f4d29a8bfc6cda04eb5b0d3c460751c2402c5c5cc9109c826040516104cb919061094e565b60405180910390a250565b6104de610580565b600073ffffffffffffffffffffffffffffffffffffffff168173ffffffffffffffffffffffffffffffffffffffff16141561054e576040517f08c379a0000000000000000000000000000000000000000000000000000000008152600401610545906108ee565b60405180910390fd5b610557816105fe565b50565b600160009054906101000a900473ffffffffffffffffffffffffffffffffffffffff1681565b6105886106c2565b73ffffffffffffffffffffffffffffffffffffffff166105a66102bd565b73ffffffffffffffffffffffffffffffffffffffff16146105fc576040517f08c379a00000000000000000000000000000000000000000000000000000000081526004016105f39061090e565b60405180910390fd5b565b60008060009054906101000a900473ffffffffffffffffffffffffffffffffffffffff169050816000806101000a81548173ffffffffffffffffffffffffffffffffffffffff021916908373ffffffffffffffffffffffffffffffffffffffff1602179055508173ffffffffffffffffffffffffffffffffffffffff168173ffffffffffffffffffffffffffffffffffffffff167f8be0079c531659141344cd1fd0a4f28419497f9722a3daafe3b4186f6b6457e060405160405180910390a35050565b600033905090565b6000813590506106d981610a87565b92915050565b6000815190506106ee81610a9e565b92915050565b60008135905061070381610ab5565b92915050565b60008151905061071881610ab5565b92915050565b60006020828403121561073057600080fd5b600061073e848285016106ca565b91505092915050565b60006020828403121561075957600080fd5b6000610767848285016106df565b91505092915050565b60006020828403121561078257600080fd5b6000610790848285016106f4565b91505092915050565b6000602082840312156107ab57600080fd5b60006107b984828501610709565b91505092915050565b6107cb8161097a565b82525050565b6107da816109c2565b82525050565b60006107ed602683610969565b91506107f8826109e6565b604082019050919050565b6000610810602083610969565b915061081b82610a35565b602082019050919050565b6000610833601a83610969565b915061083e82610a5e565b602082019050919050565b610852816109b8565b82525050565b600060208201905061086d60008301846107c2565b92915050565b600060608201905061088860008301866107c2565b61089560208301856107c2565b6108a26040830184610849565b949350505050565b60006040820190506108bf60008301856107c2565b6108cc6020830184610849565b9392505050565b60006020820190506108e860008301846107d1565b92915050565b60006020820190508181036000830152610907816107e0565b9050919050565b6000602082019050818103600083015261092781610803565b9050919050565b6000602082019050818103600083015261094781610826565b9050919050565b60006020820190506109636000830184610849565b92915050565b600082825260208201905092915050565b600061098582610998565b9050919050565b60008115159050919050565b600073ffffffffffffffffffffffffffffffffffffffff82169050919050565b6000819050919050565b60006109cd826109d4565b9050919050565b60006109df82610998565b9050919050565b7f4f776e61626c653a206e6577206f776e657220697320746865207a65726f206160008201527f6464726573730000000000000000000000000000000000000000000000000000602082015250565b7f4f776e61626c653a2063616c6c6572206973206e6f7420746865206f776e6572600082015250565b7f596f7520646f206e6f7420686176652074686520616d6f756e74000000000000600082015250565b610a908161097a565b8114610a9b57600080fd5b50565b610aa78161098c565b8114610ab257600080fd5b50565b610abe816109b8565b8114610ac957600080fd5b5056fea2646970667358221220a9dcb280301aabd7e1c06ef6cc05edca62d059923dc53dbe1058b36f80568ed064736f6c63430008040033",
  "linkReferences": {},
  "deployedLinkReferences": {}
}