{
  "_format": "hh-sol-artifact-1",
  "contractName": "xpBridgeDiscount",
  "sourceName": "contracts/xpBridgeDiscount.sol",
  "abi": [
    {
      "inputs": [
        {
          "internalType": "address",
          "name": "_address",
          "type": "address"
        }
      ],
      "stateMutability": "nonpayable",
      "type": "constructor"
    },
    {
      "anonymous": false,
      "inputs": [
        {
          "indexed": true,
          "internalType": "address",
          "name": "_from",
          "type": "address"
        },
        {
          "indexed": false,
          "internalType": "uint256",
          "name": "_value",
          "type": "uint256"
        }
      ],
      "name": "Deposit",
      "type": "event"
    },
    {
      "anonymous": false,
      "inputs": [
        {
          "indexed": true,
          "internalType": "address",
          "name": "previousOwner",
          "type": "address"
        },
        {
          "indexed": true,
          "internalType": "address",
          "name": "newOwner",
          "type": "address"
        }
      ],
      "name": "OwnershipTransferred",
      "type": "event"
    },
    {
      "inputs": [
        {
          "internalType": "uint256",
          "name": "_amount",
          "type": "uint256"
        }
      ],
      "name": "deposit",
      "outputs": [],
      "stateMutability": "nonpayable",
      "type": "function"
    },
    {
      "inputs": [],
      "name": "owner",
      "outputs": [
        {
          "internalType": "address",
          "name": "",
          "type": "address"
        }
      ],
      "stateMutability": "view",
      "type": "function"
    },
    {
      "inputs": [],
      "name": "renounceOwnership",
      "outputs": [],
      "stateMutability": "nonpayable",
      "type": "function"
    },
    {
      "inputs": [],
      "name": "token",
      "outputs": [
        {
          "internalType": "contract ERC20",
          "name": "",
          "type": "address"
        }
      ],
      "stateMutability": "view",
      "type": "function"
    },
    {
      "inputs": [
        {
          "internalType": "address",
          "name": "newOwner",
          "type": "address"
        }
      ],
      "name": "transferOwnership",
      "outputs": [],
      "stateMutability": "nonpayable",
      "type": "function"
    },
    {
      "inputs": [
        {
          "internalType": "uint256",
          "name": "_totalAmount",
          "type": "uint256"
        }
      ],
      "name": "withdraw",
      "outputs": [],
      "stateMutability": "nonpayable",
      "type": "function"
    }
  ],
  "bytecode": "0x608060405234801561001057600080fd5b50604051610cbc380380610cbc83398181016040528101906100329190610176565b61004e61004361009560201b60201c565b61009d60201b60201c565b80600160006101000a81548173ffffffffffffffffffffffffffffffffffffffff021916908373ffffffffffffffffffffffffffffffffffffffff160217905550506101e8565b600033905090565b60008060009054906101000a900473ffffffffffffffffffffffffffffffffffffffff169050816000806101000a81548173ffffffffffffffffffffffffffffffffffffffff021916908373ffffffffffffffffffffffffffffffffffffffff1602179055508173ffffffffffffffffffffffffffffffffffffffff168173ffffffffffffffffffffffffffffffffffffffff167f8be0079c531659141344cd1fd0a4f28419497f9722a3daafe3b4186f6b6457e060405160405180910390a35050565b600081519050610170816101d1565b92915050565b60006020828403121561018857600080fd5b600061019684828501610161565b91505092915050565b60006101aa826101b1565b9050919050565b600073ffffffffffffffffffffffffffffffffffffffff82169050919050565b6101da8161019f565b81146101e557600080fd5b50565b610ac5806101f76000396000f3fe608060405234801561001057600080fd5b50600436106100625760003560e01c80632e1a7d4d14610067578063715018a6146100835780638da5cb5b1461008d578063b6b55f25146100ab578063f2fde38b146100c7578063fc0c546a146100e3575b600080fd5b610081600480360381019061007c9190610733565b610101565b005b61008b6101bc565b005b6100956101d0565b6040516100a2919061081b565b60405180910390f35b6100c560048036038101906100c09190610733565b6101f9565b005b6100e160048036038101906100dc91906106e1565b610499565b005b6100eb61051d565b6040516100f89190610896565b60405180910390f35b610109610543565b600160009054906101000a900473ffffffffffffffffffffffffffffffffffffffff1673ffffffffffffffffffffffffffffffffffffffff1663a9059cbb33836040518363ffffffff1660e01b815260040161016692919061086d565b602060405180830381600087803b15801561018057600080fd5b505af1158015610194573d6000803e3d6000fd5b505050506040513d601f19601f820116820180604052508101906101b8919061070a565b5050565b6101c4610543565b6101ce60006105c1565b565b60008060009054906101000a900473ffffffffffffffffffffffffffffffffffffffff16905090565b80600160009054906101000a900473ffffffffffffffffffffffffffffffffffffffff1673ffffffffffffffffffffffffffffffffffffffff166370a08231336040518263ffffffff1660e01b8152600401610255919061081b565b60206040518083038186803b15801561026d57600080fd5b505afa158015610281573d6000803e3d6000fd5b505050506040513d601f19601f820116820180604052508101906102a5919061075c565b10156102e6576040517f08c379a00000000000000000000000000000000000000000000000000000000081526004016102dd906108f1565b60405180910390fd5b600160009054906101000a900473ffffffffffffffffffffffffffffffffffffffff1673ffffffffffffffffffffffffffffffffffffffff1663095ea7b330836040518363ffffffff1660e01b815260040161034392919061086d565b602060405180830381600087803b15801561035d57600080fd5b505af1158015610371573d6000803e3d6000fd5b505050506040513d601f19601f82011682018060405250810190610395919061070a565b50600160009054906101000a900473ffffffffffffffffffffffffffffffffffffffff1673ffffffffffffffffffffffffffffffffffffffff166323b872dd3330846040518463ffffffff1660e01b81526004016103f593929190610836565b602060405180830381600087803b15801561040f57600080fd5b505af1158015610423573d6000803e3d6000fd5b505050506040513d601f19601f82011682018060405250810190610447919061070a565b503373ffffffffffffffffffffffffffffffffffffffff167fe1fffcc4923d04b559f4d29a8bfc6cda04eb5b0d3c460751c2402c5c5cc9109c8260405161048e9190610911565b60405180910390a250565b6104a1610543565b600073ffffffffffffffffffffffffffffffffffffffff168173ffffffffffffffffffffffffffffffffffffffff161415610511576040517f08c379a0000000000000000000000000000000000000000000000000000000008152600401610508906108b1565b60405180910390fd5b61051a816105c1565b50565b600160009054906101000a900473ffffffffffffffffffffffffffffffffffffffff1681565b61054b610685565b73ffffffffffffffffffffffffffffffffffffffff166105696101d0565b73ffffffffffffffffffffffffffffffffffffffff16146105bf576040517f08c379a00000000000000000000000000000000000000000000000000000000081526004016105b6906108d1565b60405180910390fd5b565b60008060009054906101000a900473ffffffffffffffffffffffffffffffffffffffff169050816000806101000a81548173ffffffffffffffffffffffffffffffffffffffff021916908373ffffffffffffffffffffffffffffffffffffffff1602179055508173ffffffffffffffffffffffffffffffffffffffff168173ffffffffffffffffffffffffffffffffffffffff167f8be0079c531659141344cd1fd0a4f28419497f9722a3daafe3b4186f6b6457e060405160405180910390a35050565b600033905090565b60008135905061069c81610a4a565b92915050565b6000815190506106b181610a61565b92915050565b6000813590506106c681610a78565b92915050565b6000815190506106db81610a78565b92915050565b6000602082840312156106f357600080fd5b60006107018482850161068d565b91505092915050565b60006020828403121561071c57600080fd5b600061072a848285016106a2565b91505092915050565b60006020828403121561074557600080fd5b6000610753848285016106b7565b91505092915050565b60006020828403121561076e57600080fd5b600061077c848285016106cc565b91505092915050565b61078e8161093d565b82525050565b61079d81610985565b82525050565b60006107b060268361092c565b91506107bb826109a9565b604082019050919050565b60006107d360208361092c565b91506107de826109f8565b602082019050919050565b60006107f6601a8361092c565b915061080182610a21565b602082019050919050565b6108158161097b565b82525050565b60006020820190506108306000830184610785565b92915050565b600060608201905061084b6000830186610785565b6108586020830185610785565b610865604083018461080c565b949350505050565b60006040820190506108826000830185610785565b61088f602083018461080c565b9392505050565b60006020820190506108ab6000830184610794565b92915050565b600060208201905081810360008301526108ca816107a3565b9050919050565b600060208201905081810360008301526108ea816107c6565b9050919050565b6000602082019050818103600083015261090a816107e9565b9050919050565b6000602082019050610926600083018461080c565b92915050565b600082825260208201905092915050565b60006109488261095b565b9050919050565b60008115159050919050565b600073ffffffffffffffffffffffffffffffffffffffff82169050919050565b6000819050919050565b600061099082610997565b9050919050565b60006109a28261095b565b9050919050565b7f4f776e61626c653a206e6577206f776e657220697320746865207a65726f206160008201527f6464726573730000000000000000000000000000000000000000000000000000602082015250565b7f4f776e61626c653a2063616c6c6572206973206e6f7420746865206f776e6572600082015250565b7f596f7520646f206e6f7420686176652074686520616d6f756e74000000000000600082015250565b610a538161093d565b8114610a5e57600080fd5b50565b610a6a8161094f565b8114610a7557600080fd5b50565b610a818161097b565b8114610a8c57600080fd5b5056fea2646970667358221220a659e268937f50d7557c52f4e363574d0cb54a60de796cd88401d39096c3f7d564736f6c63430008040033",
  "linkReferences": {},
  "deployedLinkReferences": {}
}